:020000040800F2
:10000000D8060020C92A0008D12A0008D32A0008EF
:10001000D52A0008D72A0008D92A000800000000C5
:10002000000000000000000000000000DB2A0008C3
:10003000DD2A000800000000DF2A0008E12A00088D
:10004000E32A0008E32A0008E32A0008E32A00085C
:10005000E32A0008E32A0008E32A0008E32A00084C
:10006000E32A0008E32A0008E32A0008E32A00083C
:10007000E32A0008E32A0008E32A0008E32A00082C
:10008000E32A0008E32A0008E32A0008E32A00081C
:10009000E32A0008E32A0008E32A0008E32A00080C
:1000A000E32A0008E32A0008E32A0008E32A0008FC
:1000B000E32A0008E32A0008E32A0008E32A0008EC
:1000C000E32A0008E32A0008E32A0008E32A0008DC
:1000D000E32A0008A5030008E32A0008E32A000831
:1000E000E32A0008E32A0008E32A000800F002F8E7
:1000F00000F050F814A696E8000CB244B344DA4578
:1001000001D100F047F8BAE80F000FA696E83000DA
:10011000A5EB040504EB0607AAEB0704A7F101070A
:100120004FEA15154FEA3414A4F10104AC4201D38F
:1001300000F030F813F0010F18BFFB1A43F0010371
:1001400000F001F8DBE71847783600009836000029
:10015000103A24BF78C878C1FAD8520724BF30C8F3
:1001600030C144BF04680C60704700007047000055
:100170000023002400250026103A28BF78C1FBD8B0
:10018000520728BF30C148BF0B6070471FB51FBD65
:1001900010B510BD02F016FE1146FFF7F7FF00F094
:1001A000D1F802F034FE03B4FFF7F2FF03BC02F013
:1001B0003BFE000080B584B00420012102F034F839
:1001C000102003900220ADF804000320029040F6B6
:1001D0000000C4F2010001A901F01EFB04B080BDC3
:1001E00080B584B043F24F70C0F60000002100F0EB
:1001F000E1FB012809D1FFE740F60000C4F201004D
:100200000221012201F032FC4DE043F24B70C0F6B6
:100210000000002100F0CEFB012809D1FFE740F6E5
:100220000000C4F201000221002201F01FFC39E0AD
:1002300043F29F70C0F60000002100F0BBFB80B3CA
:10024000FFE700228DF80F2001200DF10F0100F0D3
:10025000F3FB012824D1FFE7FFE79DF80F000128F9
:100260001DDBFFE740F60000C4F201000090022110
:100270000191012201F0FAFBC820029000F098F9E8
:1002800000980199002201F0F1FB029800F090F92A
:10029000FFE79DF80F0001388DF80F00DDE7FFE75D
:1002A000FFE7FFE7FFE7002004B080BD80B582B024
:1002B00043F25270C0F60000002100F07BFB0128E1
:1002C00019D1FFE743F25670C0F6000000F09EFE21
:1002D00001200DF10701002200F0AEFB012809D139
:1002E000FFE79DF8071043F23670C0F6000000F0FB
:1002F0008DFEFFE723E043F24370C0F600000021CB
:1003000000F058FB012819D1FFE743F26D70C0F6E9
:10031000000000F07BFE01200DF10601002200F03C
:100320008BFB012809D1FFE79DF8061043F23670D8
:10033000C0F6000000F06AFEFFE7FFE7FFE70020DD
:1003400002B080BD80B582B00020019000F078F846
:10035000FFF730FF40F20000C2F2000000F00AFB9D
:1003600040F20800C2F2000000F004FB40F29401E9
:10037000C2F2000140F2F540C0F60000086043F20E
:100380008B70C0F6000040F29A2148F21F52C5F26D
:10039000EB1241F6B863C4F2090300F037FEFFE741
:1003A000FEE700BF80B582B043F60000C4F2010052
:1003B00040F2255102F012FB00283ED0FFE743F641
:1003C0000000C4F2010002F019FA8DF8070040F2B3
:1003D0009800C2F2000090F83000222824DCFFE7E9
:1003E0009DF8070040F29801C2F2000191F8302018
:1003F000531C81F8303088549DF807000A2805D036
:10040000FFE79DF807000D280DD1FFE743F2AB7021
:10041000C0F6000040F29801C2F2000100F0F6FDC3
:1004200000F006F9FFE7FFE743F60000C4F2010021
:1004300040F2255102F026FBFFE702B080BD00002C
:1004400080B58EB044F205000121049101F0ECFE6C
:1004500018200D904FF40070ADF82C000320009090
:100460000C9040F60000C4F2010001900BA902912B
:1004700001F0D2F9009A0198029948230D934FF4A4
:100480008063ADF82C300C9201F0C6F94FF4E130E6
:1004900005900020ADF820000C21ADF81E10ADF83D
:1004A0001C00ADF81A00ADF8180043F60000C4F2C5
:1004B0000100039005A901F0D5FF0398049A40F2CA
:1004C000255102F0D1F84FF4A06001F061F80498D2
:1004D00025218DF824100A908DF825008DF826002E
:1004E00009A801F063F80398049902F0A9F80EB086
:1004F00080BD00BF81B08DF80300FFE743F6000028
:10050000C4F2010000880006002801D4FFE7F5E7E7
:100510009DF8030043F60401C4F20101088001B014
:10052000704700BF80B582B0019000208DF80300B5
:10053000FFE701989DF80310405C60B1FFE7019868
:100540009DF80310405CFFF7D5FF9DF803000130D4
:100550008DF80300EDE702B080BD000081B000908F
:10056000009800EBC000C0004EF21401CEF2000172
:1005700008604EF21801CEF20001002008604EF231
:100580001001CEF2000105200860FFE74EF21000D6
:10059000CEF200000068C003002801D4FFE7F5E7B1
:1005A0004EF21001CEF200010420086001B0704745
:1005B00080B582B00190FFE70198411E019128B1FA
:1005C000FFE74FF47A70FFF7C9FFF5E702B080BD8F
:1005D00080B582B00190FFE70198411E019128B1DA
:1005E000FFE74FF47A70FFF7E3FFF5E702B080BD55
:1005F00084B002900191029818B1FFE7019818B9F0
:10060000FFE70020039010E002980090FFE70198B8
:10061000411C0191007800994A1C0092087008B1B1
:10062000FFE7F4E702980390FFE7039804B07047F0
:1006300080B58AB0002003908DF8230043F2BE708D
:10064000C0F60000079040F29800C2F2000001904E
:1006500000F072F80198079906AA029200F0B2F829
:10066000029A01460398059105990491079900F0B3
:10067000A9F80590FFE7059820B3FFE740F2D00006
:10068000C2F20000007803280EDCFFE705989DF811
:100690002320511C8DF8231040F29801C2F2000172
:1006A00001EB8201486206E040F2CC01C2F2000197
:1006B0000020086006E00799002006AA00F082F8F2
:1006C0000590D8E700208DF82300FFE79DF8230070
:1006D00040F27801C2F20001097E884224DAFFE785
:1006E00004989DF8232040F27801C2F2000151F8ED
:1006F0002210096800F0D0F878B9FFE79DF82310C0
:1007000040F27800C2F2000050F8210040688047B3
:1007100000F0F0F8012009900BE0FFE79DF82300BE
:1007200001308DF82300D1E700F0E4F800200990B3
:10073000FFE709980AB080BD80B584B003900398A4
:1007400000F066F98DF80B00FFE79DF80B10002014
:100750000129019025DBFFE703999DF80B00084470
:1007600010F8011C01202029009017D0FFE7039901
:100770009DF80B00084410F8011C01200D29009081
:100780000CD0FFE703999DF80B00084410F8010C0A
:100790000A38B0FA80F040090090FFE70098019015
:1007A000FFE70198C00750B1FFE703999DF80B00E0
:1007B00001388DF80B00C2B200208854C5E704B0A0
:1007C00080BD00BF80B588B0069005910492069860
:1007D00020B1FFE7069804990860FFE704980068D5
:1007E00018B9FFE70020079052E0049800680390D2
:1007F000FFE7039801780020019051B1FFE70598C9
:100800000399097800F0DCFD002818BF0120019051
:10081000FFE70198C00720B1FFE70398013003907C
:10082000E7E70398007828B9FFE7049900200860FB
:1008300007902DE003980290FFE7029801780020CE
:10084000009051B1FFE705980299097800F0B8FDD2
:10085000B0FA80F040090090FFE70098C00720B18F
:10086000FFE7029801300290E7E70298007840B174
:10087000FFE702990020087002980130049908608F
:1008800003E0049900200860FFE703980790FFE762
:10089000079808B080BD00BF83B001900091019817
:1008A00018B1FFE7009820B9FFE74FF0FF30029042
:1008B0001CE0FFE7019800780099097888420ED182
:1008C000FFE70198007818B9FFE7002002900DE0DB
:1008D000019801300190009801300090EAE70198FA
:1008E000007800990978401A0290FFE7029803B057
:1008F000704700BF81B000208DF803008DF8030021
:10090000FFE79DF80300022811DCFFE79DF80310C4
:1009100040F29800C2F2000000EB81010020486222
:10092000FFE79DF8030001308DF80300E9E70020A0
:100930008DF80300FFE79DF8030022280FDCFFE796
:100940009DF8032040F29801C2F200010020885473
:10095000FFE79DF8030001308DF80300EBE740F25C
:100960009801C2F20001002081F83000012001B09E
:10097000704700BF82B00090009818B9FFE70020D0
:10098000019013E00098406868B1FFE7009840F2DA
:100990007801C2F200010A7E531C0B7641F8220056
:1009A0000120019002E000200190FFE7019802B0D1
:1009B000704700BF80B584B002908DF80710029890
:1009C0009DF8072040F29801C2F2000101EB82017C
:1009D000496AFFF761FF18B9FFE70120039002E0C1
:1009E00000200390FFE7039804B080BD80B582B07B
:1009F0008DF807009DF8071040F29800C2F2000041
:100A000000EB8100406A00F003F802B080BD00BF37
:100A100082B0019001980090FFE70098007820B123
:100A2000FFE7009801300090F7E700980199401A1D
:100A3000C0B202B0704700BF80B5A6B08DF8930079
:100A4000239122929DF8931040F29800C2F2000088
:100A500000EB8100406A2190219818B9FFE700203F
:100A6000259024E10120209022980090072800F290
:100A700008810099DFE801F004235070A0B1E0F391
:100A800021981EA920AA00F015F91D901D98012893
:100A900003D0FFE70020259009E11E991F98B1F5CA
:100AA000807170F1000004D3FFE72399FF200870E4
:100AB00004E09DF8780023990870FFE7E4E02198AE
:100AC0001AA920AA00F04EF919901998012803D00C
:100AD000FFE700202590EAE01A991B98803970F111
:100AE000000004DBFFE723997F20087013E01A9AC7
:100AF0001B996FF08000801A4FF0FF30884104DBB3
:100B0000FFE723998020087004E09DF8680023998E
:100B10000870FFE7FFE7B7E0219816A920AA00F0C8
:100B2000C9F815901598012803D0FFE700202590FB
:100B3000BDE016991798B1F5803170F1000005D32A
:100B4000FFE723994FF6FF70088004E0BDF85800D6
:100B500023990880FFE797E0219812A920AA00F0C6
:100B600001F911901198012803D0FFE7002025908A
:100B70009DE012991398B1F5004170F1000005DB7A
:100B8000FFE7239947F6FF70088014E0129A139943
:100B90006FF40040801A4FF0FF30884105DBFFE71B
:100BA00023994FF40040088004E0BDF848002399E1
:100BB0000880FFE7FFE767E021980EA920AA00F070
:100BC00079F80D900D98012803D0FFE700202590BB
:100BD0006DE00E982399086056E021980AA920AA92
:100BE00000F0C0F809900998012803D0FFE7002021
:100BF00025905CE00A990B98B1F1004170F100007A
:100C000005DBFFE723996FF00040086013E00A9AC4
:100C10000B996FF00040801A4FF0FF30884105DBE0
:100C2000FFE723994FF00040086003E00A982399FA
:100C30000860FFE7FFE727E0219806A900F0BEF86B
:100C400005900598012803D0FFE7002025902EE0AD
:100C50000698079902F0F0F82399086014E02198AB
:100C600002A900F0ABF801900198012803D0FFE73A
:100C7000002025901BE00298039A23994A6008609F
:100C800002E00020259012E02198007848B1FFE7AB
:100C9000219800782D2807D1FFE72198407818B9CE
:100CA000FFE70020259002E001202590FFE725982E
:100CB00026B080BD80B586B004900391029203995E
:100CC00000204860086002990120086004980078BC
:100CD0002D2808D1FFE702994FF0FF3008600498F3
:100CE0000130049009E0049800782B2804D1FFE734
:100CF000049801300490FFE7FFE7FFE704980078CD
:100D000000F088FB38B3FFE7039908684A680A21B6
:100D1000A0FB011002EB820200EB4200049A127861
:100D2000303A891840EBE27000910190009A0198E6
:100D300003990B684968D21A884103D2FFE7002063
:100D400005900BE00098019A03994A6008600498A6
:100D500001300490D2E701200590FFE7059806B026
:100D600080BD00BF80B588B00690059104920698BA
:100D7000049A02A9FFF79EFF01900198012803D071
:100D8000FFE70020079016E00298039A05994A6051
:100D9000086004980068013050B9FFE705990868B9
:100DA0004B6842424FF0000098410A604860FFE7FC
:100DB00001200790FFE7079808B080BD80B59CB080
:100DC0001A9019911A9818B1FFE7199818B9FFE706
:100DD00000201B9016E100200B9017901690002128
:100DE000C3F6F07115911490139012901190109019
:100DF0000F910E90FFE71A98007800F01FFB20B1CA
:100E0000FFE71A9801301A90F5E71A9800782D2814
:100E10000AD1FFE70020CBF6F07015900020149067
:100E20001A9801301A9009E01A9800782B2804D1FA
:100E3000FFE71A9801301A90FFE7FFE7FFE71A98DB
:100E4000007800F0E7FAF8B1FFE7169807901798D6
:100E500008901A980078303802F053FA0246079842
:100E600009920A4608990A9200220023C4F2240338
:100E700002F05EFA099A0A9B02F010F81791169098
:100E80001A9801301A90DAE71A9800782E283ED185
:100E9000FFE71A9801301A9049F69910C3F6B97015
:100EA0000D9049F69A10C9F699100C90FFE71A9820
:100EB000007800F0AFFA48B3FFE71A9800783038AE
:100EC00002F01FFA0C9A0D9BDDF848C0CDF814C053
:100ED000DDF84CC0CDF818C002F02AFA059A069B3E
:100EE00001F0DCFF139112900C980D9949F69A12BB
:100EF000C9F6991249F69913C3F6B97302F018FAB4
:100F00000D910C901A9801301A90D0E7FFE71A98CB
:100F1000007800F0BFFA652843D1FFE71A98013046
:100F20001A901A9800782D280AD1FFE70020CBF6F6
:100F3000F0700F9000200E901A9801301A9009E07E
:100F40001A9800782B2804D1FFE71A9801301A90DC
:100F5000FFE7FFE7FFE71A98007800F05BFAF8B1C7
:100F6000FFE710980190119802901A980078303895
:100F700002F0C7F90246019803920A4602990492C8
:100F800000220023C4F2240302F0D2F9039A049B46
:100F900001F084FF119110901A9801301A90DAE74D
:100FA000FFE716981799129A139B01F077FF149A8E
:100FB000159B02F0BDF917911690109811990E9A91
:100FC0000F9B02F0B5F902F06DF9024600200021F6
:100FD000C4F2240100F07AFA119110901698179932
:100FE000109A119B02F0A4F90A4619994A60086008
:100FF0001A98007818B1FFE700201B9002E001204A
:101000001B90FFE71B981CB080BD00BF83B080B56C
:10101000EFB07393729271916E9071A86D900020F1
:101020008DF8B400FF208DF8B300FFE76E980178CB
:101030000020069059B1FFE79DF8B4109DF8B30069
:10104000421E00209142B8BF01200690FFE706989B
:10105000C007002800F07680FFE76E98007825280A
:1010600040F06380FFE76E9801306E906E980078D4
:10107000643801460591112848D80599DFE801F048
:101080000946274646464646464646464646463D65
:1010900046186D98011D6D9100682B902B9823A91F
:1010A00004910A2200F054F8049800F0C5F83BE0DF
:1010B0006D98011D6D910068229022981AA90391E4
:1010C0000A2200F0CFF8039800F0B6F82CE06D98F3
:1010D000073020F0070101F108006D9008684968A9
:1010E000199118901898199908AA0292062300F0ED
:1010F00009F9029800F0A0F816E06D98011D6D91B5
:1011000000680790079800F097F80DE040F294000F
:10111000C2F200000190016825208847019801680B
:101120006E9800788847FFE708E040F29400C2F22A
:10113000000001686E9800788847FFE76E980130DC
:101140006E9073E701206FB0BDE8804003B0704738
:101150008DB00C900B910A920B9809900A9900207F
:101160000A29029004D1FFE70C98C00F0290FFE714
:10117000029800F001000890089820B1FFE70C9851
:101180004042019002E00C980190FFE7019807901F
:10119000FFE7079A0A99B2FBF1F000FB11200690D5
:1011A0000698092804DCFFE706983030009003E039
:1011B000069857300090FFE7009809994A1C099259
:1011C0000870FFE70A990798B0FBF1F00790002834
:1011D000DFD1FFE7089830B1FFE70999481C099073
:1011E0002D200870FFE709990020087005900999E3
:1011F0000B98C04308440490FFE70598049988427F
:1012000017DAFFE70B980599405C8DF80F000B99F2
:101210000498085C059A88549DF80F000B99049A6D
:101220008854FFE705980130059004980138049030
:10123000E3E70DB0704700BF80B582B00190FFE7D3
:101240000198007858B1FFE740F29400C2F2000024
:1012500001680198421C019200788847F0E702B0CB
:1012600080BD00BF89B0089007910692079805904D
:10127000FFE7089A0699B2FBF1F000FB11200490F9
:101280000498092804DCFFE704983030009003E05C
:10129000049857300090FFE7009805994A1C059282
:1012A0000870FFE706990898B0FBF1F00890002855
:1012B000DFD1FFE705990020087003900599079892
:1012C000C04308440290FFE703980299884217DA66
:1012D000FFE707980399405C8DF80700079902988B
:1012E000085C039A88549DF807000799029A88546D
:1012F000FFE7039801300390029801380290E3E77A
:1013000009B0704780B58EB00D910C900B920A9386
:101310000C980D9901F0C6FF09900C9800900D985B
:101320000190099801F0EDFF024600980B460199E3
:1013300002F0FCF80791069009980B990A22FFF732
:1013400007FF0B980290FFF763FB014602980844E1
:1013500005900599481C05902E20087000200490E7
:10136000FFE704980A99884225DAFFE7069807996B
:1013700000220023C4F2240301F0DAFF0791069053
:101380000698079901F08EFF039003983030059975
:101390004A1C05920870039801F0B3FF02460B4601
:1013A0000698079902F0C2F807910690FFE70498A3
:1013B00001300490D5E70599002008700EB080BD7B
:1013C00083B001900091019818B9FFE700200290C6
:1013D0001CE0FFE70198007870B1FFE70198007802
:1013E0009DF80010884203D1FFE7019802900DE0BC
:1013F000019801300190EDE79DF8000018B9FFE772
:101400000198029002E000200290FFE7029803B0EA
:10141000704700BF82B001900199002030290090F0
:1014200007DBFFE7019900203A29B8BF01200090AF
:10143000FFE7009800F0010002B0704782B0019011
:1014400001990120202900901FD0FFE70199012078
:101450000929009019D0FFE7019901200A2900907D
:1014600013D0FFE7019901200B2900900DD0FFE771
:10147000019901200C29009007D0FFE701980D3851
:10148000B0FA80F040090090FFE7009800F00100FA
:1014900002B0704781B08DF802009DF8020041282B
:1014A0000BDBFFE79DF802005A2806DCFFE79DF8FA
:1014B000020020308DF8030004E09DF802008DF852
:1014C0000300FFE79DF8030001B0704780B58AB0C4
:1014D000079106900592059838B9FFE70020C3F6FA
:1014E000F0700990002008904DE00020C3F6F070E5
:1014F0000390002002900598B0F1FF3F04DCFFE765
:1015000005984042009002E005980090FFE700989F
:101510000190FFE70198012820DBFFE7019800EB2D
:10152000D07121F00101401A012809D1FFE7069A84
:10153000079B0298039901F0FBFE03910290FFE7DD
:10154000069A079B1046194601F0F2FE0791069095
:10155000019800EBD07040100190DBE70598B0F1E6
:10156000FF3F0BDCFFE7029A039B00200021C3F63C
:10157000F07101F03BFD03910290FFE7029803999F
:1015800009910890FFE7089809990AB080BD00000A
:1015900081B0009000980021C0F2FA5108434EF645
:1015A0000C51CEF20001086001B0704784B0039086
:1015B0000020029001900F20009003984068B8B37B
:1015C000FFE74EF60C50CEF200000068C043C0F3B7
:1015D000022002900298C0F1040001900098029944
:1015E000C840009003984078019988400290039881
:1015F0008078009901400298084302900298000107
:1016000002900298039909784EF20042CEF200024D
:1016100088540398027802F01F01012088401C21A1
:1016200001EAD2014EF20012CEF2000288500EE022
:101630000398027802F01F01012088401C2101EA72
:10164000D2014EF28012CEF200028850FFE704B0C1
:10165000704700BF82B001900091019800994FF649
:101660008072C1F6FF72114008434EF60851CEF267
:101670000001086002B0704782B08DF80700009149
:10168000009850B1FFE79DF807204EF61051CEF2BA
:10169000000108681043086009E09DF807204EF635
:1016A0001051CEF20001086890430860FFE702B0D5
:1016B000704700BF81B000900098042809D1FFE76F
:1016C0004EF21001CEF20001086840F004000860FC
:1016D00008E04EF21001CEF20001086820F004008C
:1016E0000860FFE701B0704780B588B007900798A1
:1016F00040F60001C4F2010188420AD1FFE704204C
:101700000690012100F0C4FD0698002100F0C0FD04
:1017100072E0079840F60041C4F2010188420AD104
:10172000FFE708200590012100F0B2FD0598002197
:1017300000F0AEFD5FE0079841F20001C4F2010144
:1017400088420AD1FFE710200490012100F0A0FD9B
:101750000498002100F09CFD4CE0079841F2004104
:10176000C4F2010188420AD1FFE720200390012141
:1017700000F08EFD0398002100F08AFD39E0079803
:1017800041F60001C4F2010188420AD1FFE740207E
:101790000290012100F07CFD0298002100F078FD0C
:1017A00026E0079841F60041C4F2010188420AD1BF
:1017B000FFE780200190012100F06AFD01980021DF
:1017C00000F066FD13E0079842F20001C4F2010147
:1017D00088420BD1FFE74FF480700090012100F0A8
:1017E00057FD0098002100F053FDFFE7FFE7FFE7FA
:1017F000FFE7FFE7FFE7FFE708B080BD80B582B0F5
:1018000001210191084600F043FD0198002100F0FC
:101810003FFD02B080BD00BF88B007900691002058
:1018200005900490039002900190009006988068C3
:1018300000F00F0005900698007AC006002806D533
:10184000FFE706984168059808430590FFE706986A
:10185000007800284BD0FFE707980068019000202F
:101860000390FFE7039807283DD8FFE7039901207D
:1018700088400290069800880299084004900498D5
:10188000029988422AD1FFE70398800002900299CA
:101890000F20884000900099019888430190059896
:1018A000029900FA01F101980843019006988068B6
:1018B000282806D1FFE7039901208840079948614D
:1018C0000BE006988068482806D1FFE703990120BD
:1018D000884007990861FFE7FFE7FFE7FFE7039804
:1018E00001300390BEE7019807990860FFE706986A
:1018F0000088B0F5807F50DBFFE7079840680190D3
:1019000000200390FFE70398072842D8FFE70398D9
:1019100000F1080101208840029006980088029991
:10192000084004900498029988422DD1FFE703985B
:101930008000029002990F20884000900099019841
:10194000884301900598029900FA01F10198084333
:10195000019006988068282808D1FFE7039800F1D5
:1019600008010120884007994861FFE706988068D0
:10197000482808D1FFE7039800F1080101208840BA
:1019800007990861FFE7FFE7FFE70398013003903D
:10199000B9E7019807994860FFE708B0704700BFB2
:1019A00081B0009000994FF6FF70088000990220E6
:1019B000486000990420886001B0704782B00190AF
:1019C000ADF8021000208DF8010001988068BDF884
:1019D0000210084204D0FFE701208DF8010003E067
:1019E00000208DF80100FFE79DF8010002B070476C
:1019F00081B000900098806880B201B0704700BF4D
:101A000082B00190ADF8021000208DF8010001981D
:101A1000C068BDF80210084204D0FFE701208DF82D
:101A2000010003E000208DF80100FFE79DF80100B0
:101A300002B0704781B000900098C06880B201B0D9
:101A4000704700BF82B00190ADF80210BDF80200EF
:101A50000199086102B0704782B00190ADF80210A0
:101A6000BDF802000199486102B0704783B002904E
:101A7000ADF806100092009828B1FFE7BDF8060007
:101A80000299086104E0BDF8060002994861FFE789
:101A900003B0704782B00190ADF80210BDF80200AB
:101AA0000199C86002B0704783B00290ADF806108B
:101AB0004FF480300090BDF8061000980843009065
:101AC000009802998861BDF8060002998861009823
:101AD000029988610298806900900298806900905C
:101AE00003B0704782B08DF807008DF80610002013
:101AF00000900021C4F201010868009000984FF6A0
:101B00008072104000909DF80720009840EA021073
:101B100000909DF8062000981043009000980860FF
:101B200002B0704781B0009000981C21C4F22021BF
:101B3000086001B0704700BF86B005900491002096
:101B400003900290019000909DF817000006002875
:101B500006D5FFE71C20C4F201000068019005E0F3
:101B60000420C4F2010000680190FFE70598C0F36B
:101B700003400090BDF814000390059800F4401055
:101B8000B0F5401F0CD1FFE7019820F07060019084
:101B90000421C4F20101086820F07060086023E0AD
:101BA0009DF81600C00600280DD5FFE70099032018
:101BB000884002900299019888430190019840F072
:101BC000706001900FE00398059A6FF00F0101EA31
:101BD000524100FA01F1019888430190019840F0C8
:101BE00070600190FFE7FFE7049860B1FFE703989A
:101BF000059A6FF00F0101EA524100FA01F10198D4
:101C000008430190FFE79DF817000006002806D55D
:101C1000FFE701981C21C4F20101086005E001986A
:101C20000421C4F201010860FFE706B0704700BF5D
:101C300082B08DF807008DF80610002000909DF806
:101C4000060000F0030081000F2088400090009BF8
:101C50009DF8060000F0FC010822C4F20102885839
:101C6000984388509DF807109DF8060000F0030384
:101C70009B0001FA03F300F0FC01885818438850D8
:101C800002B0704781B000900098DC21C4F220219E
:101C9000086001B07047000041F20002C4F2020285
:101CA000106840F00100106041F20401C4F202012A
:101CB00008680023CFF6FF031840086010684FF64D
:101CC000FF73CFF6F66318401060106820F4802090
:101CD0001060086820F4FE00086041F20801C4F2B8
:101CE00002014FF41F000860704700BF82B00190EE
:101CF00041F20001C4F20201086820F4803008605B
:101D0000086820F48020086001980090B0F5803FBA
:101D100005D0FFE70098B0F5802F09D011E041F21F
:101D20000001C4F20201086840F48030086009E054
:101D300041F20001C4F20201086840F4A0200860EA
:101D400000E0FFE702B0704780B584B00020039048
:101D500002900190FFE7312000F026F801900398EF
:101D600001300390FFE703990020B1F5A06F0090C8
:101D700006D0FFE70198B0FA80F040090090FFE735
:101D80000098C0070028E6D1FFE7312000F00CF8EA
:101D900018B1FFE70120029002E000200290FFE767
:101DA000029804B080BD00BF84B08DF80F00002001
:101DB0000290019000909DF80F0040090290029857
:101DC000012807D1FFE741F20000C4F202000068D9
:101DD000019012E00298022807D1FFE741F22000AB
:101DE000C4F202000068019006E041F22400C4F24F
:101DF000020000680190FFE7FFE79DF80F0000F088
:101E00001F00029001980299C840C00718B1FFE76F
:101E10000120009002E000200090FFE7009804B04D
:101E2000704700BF82B08DF807000020009041F29B
:101E30000001C4F2020108680090009820F0F80048
:101E400000909DF80720009840EAC200009000989A
:101E5000086002B0704700BF81B000900098002178
:101E6000C4F24221086001B0704700BF83B0029005
:101E700001910020009041F20401C4F202010868BF
:101E80000090009820F47C1000900298019A024380
:101E90000098104300900098086003B0704700BF9E
:101EA00081B0009000986021C4F24221086001B026
:101EB000704700BF82B001900020009041F2040101
:101EC000C4F2020108680090009820F0030000901E
:101ED000019A0098104300900098086002B0704783
:101EE00041F20400C4F20200006800F00C007047E8
:101EF00082B001900020009041F20401C4F202017E
:101F000008680090009820F0F0000090019A009876
:101F1000104300900098086002B0704782B00190B2
:101F20000020009041F20401C4F202010868009010
:101F3000009820F4E0600090019A0098104300900F
:101F40000098086002B0704782B0019000200090B5
:101F500041F20401C4F2020108680090009820F4E4
:101F600060500090019A009840EAC20000900098EA
:101F7000086002B0704700BF82B08DF80700009182
:101F8000009850B1FFE79DF8072041F20901C4F223
:101F9000020108781043087009E09DF8072041F21B
:101FA0000901C4F20201087890430870FFE702B00B
:101FB000704700BF81B000900098D821C4F2422140
:101FC000086001B0704700BF82B00190002000900F
:101FD00041F20401C4F2020108680090009820F464
:101FE00040400090019A00981043009000980860CB
:101FF00002B0704782B08DF8070041F22001C4F2B0
:1020000002010020087008709DF807000146009149
:10201000012804D0FFE70098042807D00DE041F222
:102020002001C4F202010120087007E041F2200102
:10203000C4F202010520087000E0FFE702B070471B
:1020400081B00090009840F28041C4F242210860C3
:1020500001B0704781B00090009A41F22001C4F2B3
:10206000020108681043086001B0704781B0009019
:10207000009840F23C41C4F24221086001B0704730
:1020800086B005900020049003900290019041F2E8
:102090000400C4F20200006800F00C0004900498F0
:1020A000009040B1FFE7009804280BD0FFE70098AC
:1020B00008280ED047E0059941F20020C0F27A00CE
:1020C000086047E0059941F20020C0F27A000860FC
:1020D00040E041F20400C4F20200016801F4701112
:1020E0000391006800F4803002900399022000EB15
:1020F00091400390029848B9FFE7039840F6001119
:10210000C0F23D014843059908601BE041F204001C
:10211000C4F2020000688003002809D5FFE7039895
:1021200040F60011C0F23D0148430599086008E0FF
:10213000039841F20021C0F27A01484305990860F2
:10214000FFE7FFE706E0059941F20020C0F27A00C0
:102150000860FFE741F20400C4F20200016801F0E8
:10216000F0010491049909090491049A43F226713B
:10217000C0F600018A5C0192059B1A68DDF804C074
:1021800022FA0CF25A60026802F4E0620492049AA5
:10219000120A0492049A8A5C0192059B5A68DDF83F
:1021A00004C022FA0CF29A60026802F460520492AF
:1021B000049AD20A0492049A895C0191059A5168A2
:1021C000019BD940D160006800F44040049004981D
:1021D000800B0490049943F21270C0F60000405C3A
:1021E00001900599C868019AB0FBF2F0086106B049
:1021F000704700BF82B001900091009848B1FFE79E
:10220000019A41F21401C4F2020108681043086007
:1022100008E0019A41F21401C4F2020108689043F7
:102220000860FFE702B0704782B00190009100980B
:1022300048B1FFE7019A41F21801C4F202010868AF
:102240001043086008E0019A41F21801C4F202014B
:10225000086890430860FFE702B0704782B00190C1
:102260000091009848B1FFE7019A41F21C01C4F2C5
:10227000020108681043086008E0019A41F21C015D
:10228000C4F20201086890430860FFE702B070479B
:1022900082B001900091009848B1FFE7019A41F2A5
:1022A0000C01C4F2020108681043086008E0019ABA
:1022B00041F20C01C4F20201086890430860FFE794
:1022C00002B0704782B001900091009848B1FFE7DA
:1022D000019A41F21001C4F202010868104308603B
:1022E00008E0019A41F21001C4F20201086890432B
:1022F0000860FFE702B0704781B00090009840F29C
:102300004041C4F24221086001B0704781B00090A2
:1023100000984C21C4F24221086001B0704700BF10
:1023200081B08DF803009DF8030041F20701C4F26B
:102330000201087001B0704741F22401C4F20201A9
:10234000086840F080700860704700BF82B08DF868
:1023500007000020009041F20800C4F2020000686B
:102360009DF80710084203D0FFE70120009002E02B
:1023700000200090FFE7009802B0704781B08DF810
:1023800003009DF8030041F20A01C4F20201087043
:1023900001B0704780B586B00590059843F60001FE
:1023A000C4F2010188420BD1FFE74FF48040049052
:1023B0000121FFF76DFF04980021FFF769FF4FE04F
:1023C000059844F20041C4F2000188420BD1FFE7B6
:1023D0004FF4003003900121FFF774FF03980021B0
:1023E000FFF770FF3BE0059844F60001C4F20001DE
:1023F00088420BD1FFE74FF4802002900121FFF7C4
:1024000061FF02980021FFF75DFF27E0059844F681
:102410000041C4F2000188420BD1FFE74FF40020D5
:1024200001900121FFF74EFF01980021FFF74AFFBD
:1024300013E0059845F20001C4F2000188420BD177
:10244000FFE74FF4801000900121FFF73BFF009859
:102450000021FFF737FFFFE7FFE7FFE7FFE7FFE7B1
:1024600006B080BD80B58CB00B900A910020099019
:1024700008900790069005900A98808908B1FFE7B8
:10248000FFE70B9805900B98008A099009984CF685
:10249000FF71084009900A98C1880998084309907B
:1024A00009980B9908820B988089099009984EF633
:1024B000F311084009900A9988880A8910434989CC
:1024C000014309980843099009980B9988810B9852
:1024D000808A099009984FF6FF41084009900A98B0
:1024E000818909980843099009980B998882684660
:1024F000FFF7C6FD059843F60001C4F201018842CA
:1025000003D1FFE70398089002E002980890FFE7E4
:102510000B988089000400280AD5FFE70898192144
:1025200048430A9909684900B0FBF1F0079009E0B7
:102530000898192148430A9909688900B0FBF1F00D
:102540000790FFE7079848F21F51C5F2EB11A0FB77
:1025500001016FF00F0000EA51000990079A0998F5
:102560000009642100FB112006900B98808900046B
:10257000002810D5FFE70699322000EBC10048F291
:102580001F51C5F2EB11A0FB0110C0F342110998D5
:10259000084309900FE00699322000EB011048F241
:1025A0001F51C5F2EB11A0FB0110C0F343110998B4
:1025B00008430990FFE709980B9908810CB080BD8A
:1025C00081B0009000994FF41650086000990020E7
:1025D00088800099C88000990881009A0C21518157
:1025E0000099888101B0704783B00290019100206A
:1025F00000900298008A009000984FF2FF01084076
:102600000090019908884A8810438A881043C98835
:10261000014300980843009000980299088203B093
:10262000704700BF81B00090009900200880009999
:102630004880009988800099C88001B0704700BF29
:1026400082B001900091009830B1FFE7019988892C
:1026500040F40050888105E00199888920F40050F9
:102660008881FFE702B0704787B00690ADF816107A
:10267000049200200390029001900090BDF8160093
:1026800040F66A11884201D1FFE7FFE70698009003
:102690009DF8160040090390BDF8160000F01F00D9
:1026A000029002990120884001900398012804D1EA
:1026B000FFE700980C3000900CE00398022804D14A
:1026C000FFE700981030009003E00098143000906D
:1026D000FFE7FFE7049830B1FFE7019A0099086827
:1026E0001043086005E0019A00990868904308606B
:1026F000FFE707B0704700BF83B00290ADF8061047
:102700000092009838B1FFE7BDF806200299888A48
:102710001043888206E0BDF806200299888A90431B
:102720008882FFE703B0704782B001908DF80310F4
:102730000199088A20F00F0008829DF80320019972
:10274000088A1043088202B0704700BF82B001902F
:10275000ADF802100199888920F400608881BDF8E5
:102760000220019988891043888102B0704700BF18
:1027700082B001900091009830B1FFE701998889FB
:1027800040F00200888105E00199888920F002006C
:102790008881FFE702B0704782B00190ADF8021067
:1027A0000199088A20F020000882BDF802200199D2
:1027B000088A1043088202B0704700BF82B00190BF
:1027C0000091009830B1FFE70199088A40F48040F9
:1027D000088205E00199088A20F480400882FFE71A
:1027E00002B0704782B00190ADF80210BDF802004F
:1027F0006FF35F200199888002B0704781B000902C
:10280000009880886FF35F2001B0704781B000901E
:102810000099888940F00100888101B0704700BFAD
:1028200082B001908DF803100199088BC0B2088323
:102830009DF803200199088B40EA0220088302B02A
:10284000704700BF82B001908DF803100199088B8A
:1028500020F0FF0008839DF803200199088B1043A6
:10286000088302B0704700BF82B0019000910098C9
:1028700030B1FFE70199888A40F02000888205E0A6
:102880000199888A20F020008882FFE702B0704713
:1028900082B001900091009830B1FFE70199888AD9
:1028A00040F01000888205E00199888A20F010002D
:1028B0008882FFE702B0704782B0019000910098D3
:1028C00030B1FFE70199888A40F00800888205E06E
:1028D0000199888A20F008008882FFE702B07047DB
:1028E00082B001900091009830B1FFE7019988898A
:1028F00040F40040888105E0019988896FF3DF305A
:102900008881FFE702B0704782B001900091009883
:1029100030B1FFE70199888A40F40060888205E0C1
:102920000199888A20F400608882FFE702B070472E
:1029300082B00190ADF802100199888A20F004005D
:102940008882BDF802200199888A1043888202B0EB
:10295000704700BF82B001900091009830B1FFE74E
:102960000199888A40F00200888205E00199888AEE
:1029700020F002008882FFE702B0704783B0029027
:10298000ADF8061000200090BDF80600B0F5007FFD
:1029900001D1FFE7FFE702980088BDF80610084064
:1029A000000418B1FFE70120009002E00020009031
:1029B000FFE7009803B0704782B00190ADF80210B5
:1029C000BDF802008005002801D5FFE7FFE7BDF84C
:1029D0000200C0430199088002B0704786B005909C
:1029E000ADF8121000200390029001900090BDF805
:1029F000120040F66A11884201D1FFE7FFE79DF817
:102A0000120040090190BDF8120000F01F00029072
:102A100002990120884002900198012806D1FFE721
:102A20000598818902980840029010E001980228D8
:102A300006D1FFE70598018A02980840029005E058
:102A40000598818A029808400290FFE7FFE79DF809
:102A50001300039003990120884003900598018892
:102A6000039808400390029830B1FFE7039818B12B
:102A7000FFE70120009002E000200090FFE70098AF
:102A800006B0704783B00290ADF806100020ADF894
:102A90000400ADF80200BDF8060040F66A11884255
:102AA00001D1FFE7FFE79DF80700ADF80400BDF88E
:102AB000041001208840ADF80200BDF80200C043B8
:102AC0000299088003B070470948804709480047C9
:102AD000FEE7FEE7FEE7FEE7FEE7FEE7FEE7FEE7CE
:102AE000FEE7FEE704480549054A064B704700002B
:102AF000092B0008ED000008D8000020D8060020AF
:102B0000D8020020D802002080B541F20002C4F2B1
:102B10000202106840F00100106041F20401C4F2AA
:102B2000020108680023CFF6FF0318400860106810
:102B30004FF6FF73CFF6F66318401060106820F46C
:102B400080201060086820F4FE00086041F208014F
:102B5000C4F202014FF41F00086000F009F84EF6BD
:102B60000851CEF200014FF00060086080BD00BF48
:102B700080B500F093F880BD84B0002003900290EF
:102B8000019041F20400C4F20200006800F00C0061
:102B900003900398009040B1FFE7009804280ED0FE
:102BA000FFE70098082814D056E040F21001C2F266
:102BB000000141F20020C0F27A00086056E040F2C5
:102BC0001001C2F2000141F20020C0F27A00086058
:102BD0004CE041F20400C4F20200016801F47011FB
:102BE0000291006800F4803001900299022000EB0D
:102BF00091400290019860B9FFE7029840F60011F9
:102C0000C0F23D01484340F21001C2F200010860E9
:102C100021E041F20400C4F20200006880030028B1
:102C20000CD5FFE7029840F60011C0F23D01484381
:102C300040F21001C2F2000108600BE0029841F27C
:102C40000021C0F27A01484340F21001C2F20001B3
:102C50000860FFE7FFE709E040F21001C2F200015F
:102C600041F20020C0F27A000860FFE741F2040060
:102C7000C4F202000068C0B2010943F21670C0F647
:102C80000000405C0390039A40F21001C2F2000180
:102C90000868D040086004B0704700BF84B00020CE
:102CA0000390029041F20001C4F20201086840F46E
:102CB00080300860FFE741F20000C4F202000068C3
:102CC00000F400300290039801300390FFE702996E
:102CD0000020019039B9FFE70398B0F5A06018BF54
:102CE00001200190FFE70198C0070028E3D1FFE72A
:102CF00041F20000C4F2020000688003002803D5FE
:102D0000FFE70120029002E000200290FFE7029816
:102D1000012851D1FFE742F20001C4F20201086824
:102D200040F010000860086820F00700086008689C
:102D300040F00200086041F20401C4F20201009177
:102D40000868086008680860086840F480600860E7
:102D5000086820F47C100860086840F4E8100860F7
:102D600041F20001C4F20201086840F0807008607E
:102D7000FFE741F20000C4F2020000688001002871
:102D800001D4FFE7F5E741F20401C4F2020108684B
:102D900020F003000860086840F002000860FFE7C8
:102DA00041F20400C4F20200006800F00C000828A0
:102DB00001D0FFE7F4E700E0FFE704B07047704799
:102DC00070477047754600F02BF8AE46050069461F
:102DD000534620F00700854618B020B5FFF782FE65
:102DE000BDE820404FF000064FF000074FF000080C
:102DF0004FF0000BAC46ACE8C009ACE8C009ACE849
:102E0000C009ACE8C00921F007018D46704710B534
:102E10000446AFF300802046BDE81040FDF7C3B97B
:102E2000004870471800002001491820ABBEFEE79B
:102E3000260002007047000021F0004201F000432C
:102E4000A2F16052B2F5801F28BFD2F17F6C0BD97E
:102E50005FEA001C43EAC20242EB507018BF7047A1
:102E600028BF20F001007047B2F5801FBCBF184694
:102E700070474FEA410C1CF5001F02D2084600F0D3
:102E800043BC70B500F0FEFA00000089FFF7F6BF02
:102E90004FF00040A0F580007047000010B591EAA7
:102EA000030F48BF83F0004300F14883841A71EB9D
:102EB000030C05D2121943EB0C03001B61EB0C0150
:102EC0004FEA1154A4EB135CDFF81CE11EEA430F38
:102ED00018BF9EEA445F00F0748021EA045123EA9F
:102EE0000E0343F48013DCF1200E32D322FA0CFEE1
:102EF00010EB0E0023FA0CFE41EB0E01CCF1200E7C
:102F000003FA0EFE10EB0E00CCF1200E51F1000181
:102F1000B1F5801F32D201EB045112FA0EF2BDE876
:102F2000104058BF7047401C38BF5FEA420218BFCC
:102F30007047002814BF20F0010041F100014FEA62
:102F4000410313F5001F38BF7047A1F1C04100F0E5
:102F5000E7BA012A43EB0302ACF1200CDCF11F0EAF
:102F600032BF4FF0000E23FA0CF310EB030041EBDD
:102F70000451B4EB115FD0D0A1EB045101F58011E5
:102F8000490801EB04515FEA30000ED350F1000014
:102F900038BF12FA0EFE08D1BDE81040C9E7401C48
:102FA00038BF5FEA4202CAD1C3E7BDE810404FEA2A
:102FB000410313F5001F38BF7047A1F1C04100F075
:102FC000AFBA9EEA445F08D011EA5E0FBDE8104038
:102FD00004BF01F0004100207047BDE8104070B50B
:102FE00000F050FA64FBBE3E0000E0FF2DE9C04156
:102FF00030B4DFF8A8C23CEA111418BF3CEA13143D
:1030000000F0F0801CEA111481EA030544EAD5744B
:1030100018BF1CEA131500F0CB80A4EB050404F1E3
:103020007F7404F500344FF0004545EAC12145EABC
:10303000C32341EA505143EA52534FEAC0204FEABA
:10304000C222994208BF904200F0A0804FEA136567
:103050000FF24816765D4FEA134506FB05F7C7F1F8
:10306000807706FB07F74FEAD737A7FB036876425E
:10307000A7FB06CEC8F5803838BFA8F1010807FBCA
:1030800008E6A6FB028C4FF0000EE6FB03CED8F15B
:1030900000086FEA0C0C5CF1000C6FEA0E0E4EF1AA
:1030A000004EA6FB0C584FF00007E6FB0E87A1FB75
:1030B00008C6A0FB07CE16EB0E064FF0000545F143
:1030C0000005E1FB076515F1E04E7EBFA4F58034F5
:1030D0005FEA46066D4116F1800745F100054FEAAB
:1030E000172747EA05674FEA15254FEA0666A6F156
:1030F000DE46B6F1805F20D9384605EBC47124F076
:10310000010C01EB0C11BCF1FE6F02D8F0BCBDE864
:10311000008124425CBF01F5801E9EEAC47F02D478
:10312000F0BCBDE80081244200F13980A1F1C0412A
:10313000F0BCBDE8004100F0F3B94FEAD02040EA0E
:1031400041504FEAD1214FEAD22242EA43524FEA9C
:10315000D323A7FB028607FB036605FB02661EEA74
:103160000E0F58BFA6EB0056B6EB00564FEA520EB4
:103170004EEAC37E18EB0E0E56EB530EBCD518EB81
:1031800002085E417F1C55F10005B5E74FF480153C
:103190004FF000074FF000064FF00008ACE701F1D8
:1031A000C04101F000414FF00000F0BCBDE80081DB
:1031B0000CEA131511EA0C1F00D00CE013EA0C1FE7
:1031C00000F025804FF0000081EA030101F000418A
:1031D000F0BCBDE80081F0BCBDE8004181EA03011C
:1031E00000F09EB9F0BCBDE8004170B500F04AF9AE
:1031F000097EFC3E00F007B84FF0000081EA0301B1
:1032000001F00041704781EA030100F089B9F0BC88
:10321000BDE8004122494FF000007047FFFDFBF977
:10322000F7F5F4F2F0EEEDEBE9E8E6E4E3E1E0DEF9
:10323000DDDBDAD8D7D5D4D3D1D0CFCDCCCBCAC86B
:10324000C7C6C5C4C2C1C0BFBEBDBCBBBAB9B8B792
:10325000B6B5B4B3B2B1B0AFAEADACABAAA9A8A885
:10326000A7A6A5A4A3A3A2A1A09F9F9E9D9C9C9B53
:103270009A999998979796959594939392919190FE
:103280008F8F8E8E8D8C8C8B8B8A8989888887878F
:103290008685858484838382828181800000FF0704
:1032A0000000F87F4FEA41034FEA5353A3F58063D0
:1032B000D3F11E03C8BFD3F1210C0CDD4FF0004247
:1032C00042EAC12242EA505232FA03FC8CEAE17C23
:1032D000ACEBE1707047102BC4BF0020704703F5C2
:1032E000787CBCF1FF3F04D06FF0004282EA2100FD
:1032F000704770B500F0C6F84992248000207047EE
:10330000F2E710F0004248BF4042B0FA80F310FAF2
:1033100003F10AD0C3F11D0303F5806302EB0352EE
:103320004FEA415002EBD12170474FF00000704747
:1033300070B5DFF848C11CEA111E1EBF1CEA131548
:103340009EEA0C0F95EA0C0F00F06F8081EA0304EF
:103350004EEAD47EAE4421EA4C1123EA4C1341F4E8
:10336000801143F48013AEF17F7EA1FB024CA0FBE1
:103370000365361955EB0C05A1FB034C4CF100031A
:10338000A0FB021C16EB0C06654153F10003094239
:1033900018BF46F0010613F4007F0BD14FEA03314A
:1033A0004FEA053041EA155140EA165034036FF0F8
:1033B00003020AE04FEAC3214FEAC52041EA555112
:1033C00040EA5650F4026FF0020202EB2E4201EB8B
:1033D000025585EACE710AD05FEA440C18BF24F08A
:1033E000004450F1000041F1000120EAD47040F2A5
:1033F000FE7C624500D270BDA84214BF4FF08044ED
:103400004FF04044002E08BF0024BEF1806FA8BFDB
:10341000A1F1C041BDE8704080F2828001F1C0415D
:1034200001F000414FF0000070470CEA13159EEACE
:103430000C0F18BF95EA0C0F06D081EA030E4FF06F
:1034400000000EF0004170BD00F01CF88900013E44
:1034500000F007B800F009B84FEA430C5FEA5C5C83
:1034600008D081EA030100F05BB84FEA410C5FEA43
:103470005C5CF6D102494FF0000070470000FF0786
:103480000000F87F0EF1020E2EF0030E5EF8046BC2
:10349000364205D4012A43EB030515F5001F12D867
:1034A000012841EB010C1CF5001F0CD80ED14FEA8E
:1034B000D17C0CEB4C0C0CF1020C15F5001F08BF75
:1034C0004CEBD37C04E04FF0080C01E04FEAD37CD6
:1034D0000CEB4C0526FA05F606F00706B6F1040CCF
:1034E00006D20EEB860CBDE870404CF0010C604734
:1034F000DFE80CF0090B02024FF00041A1F50021BA
:103500004FF0000070BD19461046012851EB010430
:1035100018BFD4F5001484BF002001F0004170BD35
:103520000808A0F500114FEA3101704710B591EA83
:10353000030F48BF83F000433FF5B8AC841A71EB2A
:10354000030C07D28CF0004C121943EB0C03001B48
:1035500061EB0C014FEA1154A4EB135CDFF8A4E11A
:103560001EEA430F18BF9EEA445F00F0B48021EAD0
:10357000045123EA6E035242C3EB6E0338BF5B1E55
:10358000DCF1200E25D322FA0CFE10EB0E0043FADC
:103590000CFE41EB0E01CCF1200E03FA0EFE10EBF7
:1035A0000E00CCF1200E51F1000129D401EB0451A1
:1035B00012FA0EF2BDE8104058BF7047401C1CBF05
:1035C000B2F1004F704700280CBF491C20F00100E9
:1035D000704712EB020E43EB030218BF4FF0010ECF
:1035E0004EEA4202ACF1200CDCF11E0E56D943FA31
:1035F0000CFE10EB0E00CCF11E0E51F1FF31D5D5B3
:103600000EF1010E12FA0EFE404141EB010101EBF9
:10361000445C5FEA5C5C10D901EB045110EBDE7096
:1036200038BFBEF1004FBDE8104018BF70470028FA
:103630000CBF491C20F00100704734D24FEAD42C53
:1036400024F4006411F500111BD0B1FA81F20B3A99
:10365000A41AA41ED2F12003914030FA03F31943B7
:10366000904001EBCC7101EB0451002CBDE81040FF
:10367000A8BF704701F1C04101F000414FF00000C8
:103680007047B0FA80F310FA03F102D1BDE81040A0
:103690007047E41A173C4805C90AE2E701EB0451F8
:1036A000BDE81040704749104FEA300001EB04516B
:1036B000BDE8104002E04FF0000170474A0008BF2B
:1036C0000042F8D0B2F5001F28BF704701F000415A
:1036D0004FF0000070479EEA445F07D011EA5E0F8A
:1036E000BDE8104004BF002100207047BDE8104035
:1036F00070B5FFF7C7FE00BF40DFF63E104683F00F
:10370000004170470000E0FFFF2141EAD050C005B2
:1037100070470204060800000000000000000102DB
:103720000304060708090000000001020304010267
:103730000304060708096174207370656564202519
:10374000640A00434343004C4544004F4646004F43
:103750004E00434357004D6F746F7220726F746157
:10376000746520636C6F636B77697365004D6F746C
:103770006F7220726F7461746520636F756E74650B
:1037800072636C6F636B776973650048656C6C6F0F
:103790002054696E79436D642025642025660042BB
:1037A0006C696E6B004D6F746F7200537472696E4A
:1037B000672072656365697665643A257300200049
:1037C000E037000800000020180000005001000849
:1037D000F837000818000020C0060000700100083B
:1037E00047370008E1010008A5370008AD020008CE
:0837F00000A24A0400000000E1
:04000005080000ED02
:00000001FF
